{
  "address": "0x28D30EFaBdc0ad25450Fd2a9B85D9fAa3a37156B",
  "abi": [
    {
      "inputs": [
        {
          "internalType": "contract IOracleAggregator",
          "name": "_oracleAggregator",
          "type": "address"
        },
        {
          "internalType": "uint256",
          "name": "_emergencyPeriod",
          "type": "uint256"
        },
        {
          "internalType": "contract AggregatorV3Interface",
          "name": "_priceFeed",
          "type": "address"
        }
      ],
      "stateMutability": "nonpayable",
      "type": "constructor"
    },
    {
      "anonymous": false,
      "inputs": [
        {
          "indexed": false,
          "internalType": "string",
          "name": "metadata",
          "type": "string"
        }
      ],
      "name": "LogMetadataSet",
      "type": "event"
    },
    {
      "anonymous": false,
      "inputs": [
        {
          "indexed": true,
          "internalType": "address",
          "name": "previousOwner",
          "type": "address"
        },
        {
          "indexed": true,
          "internalType": "address",
          "name": "newOwner",
          "type": "address"
        }
      ],
      "name": "OwnershipTransferred",
      "type": "event"
    },
    {
      "inputs": [
        {
          "internalType": "uint256",
          "name": "_timestamp",
          "type": "uint256"
        }
      ],
      "name": "_callback",
      "outputs": [],
      "stateMutability": "nonpayable",
      "type": "function"
    },
    {
      "inputs": [
        {
          "internalType": "uint256",
          "name": "_timestamp",
          "type": "uint256"
        },
        {
          "internalType": "uint256",
          "name": "_result",
          "type": "uint256"
        }
      ],
      "name": "emergencyCallback",
      "outputs": [],
      "stateMutability": "nonpayable",
      "type": "function"
    },
    {
      "inputs": [],
      "name": "emergencyPeriod",
      "outputs": [
        {
          "internalType": "uint256",
          "name": "",
          "type": "uint256"
        }
      ],
      "stateMutability": "view",
      "type": "function"
    },
    {
      "inputs": [],
      "name": "getResult",
      "outputs": [
        {
          "internalType": "uint256",
          "name": "",
          "type": "uint256"
        }
      ],
      "stateMutability": "view",
      "type": "function"
    },
    {
      "inputs": [],
      "name": "oracleAggregator",
      "outputs": [
        {
          "internalType": "contract IOracleAggregator",
          "name": "",
          "type": "address"
        }
      ],
      "stateMutability": "view",
      "type": "function"
    },
    {
      "inputs": [],
      "name": "owner",
      "outputs": [
        {
          "internalType": "address",
          "name": "",
          "type": "address"
        }
      ],
      "stateMutability": "view",
      "type": "function"
    },
    {
      "inputs": [],
      "name": "priceFeed",
      "outputs": [
        {
          "internalType": "contract AggregatorV3Interface",
          "name": "",
          "type": "address"
        }
      ],
      "stateMutability": "view",
      "type": "function"
    },
    {
      "inputs": [],
      "name": "renounceOwnership",
      "outputs": [],
      "stateMutability": "nonpayable",
      "type": "function"
    },
    {
      "inputs": [
        {
          "internalType": "uint256",
          "name": "_newEmergencyPeriod",
          "type": "uint256"
        }
      ],
      "name": "setEmergencyPeriod",
      "outputs": [],
      "stateMutability": "nonpayable",
      "type": "function"
    },
    {
      "inputs": [
        {
          "internalType": "contract AggregatorV3Interface",
          "name": "_priceFeed",
          "type": "address"
        }
      ],
      "name": "setPriceFeed",
      "outputs": [],
      "stateMutability": "nonpayable",
      "type": "function"
    },
    {
      "inputs": [
        {
          "internalType": "address",
          "name": "newOwner",
          "type": "address"
        }
      ],
      "name": "transferOwnership",
      "outputs": [],
      "stateMutability": "nonpayable",
      "type": "function"
    }
  ],
  "transactionHash": "0x315f1edaafc3590b1fdadd2cb67b2f82c2527dcce280f385dd2bd7f045775c84",
  "args": [
    "0xd030051cd8Cc0760fb0Fa857bbFDb8f9C3dAcaDE",
    3600,
    "0x5f0423B1a6935dc5596e7A24d98532b67A0AeFd8"
  ],
  "numDeployments": 1,
  "solcInputHash": "133223c58f4b6a92faf66767ec332f45",
  "bytecode": "0x60806040523480156200001157600080fd5b506040516200162638038062001626833981810160405281019062000037919062000235565b8282620000596200004d6200012460201b60201c565b6200012c60201b60201c565b81600160006101000a81548173ffffffffffffffffffffffffffffffffffffffff021916908373ffffffffffffffffffffffffffffffffffffffff16021790555080600281905550505080600360006101000a81548173ffffffffffffffffffffffffffffffffffffffff021916908373ffffffffffffffffffffffffffffffffffffffff1602179055507f0b11cbc9c1f60ccfdad79229add00f3dfa05137343e96ef525274af03c5d19d06040516200011390620002b8565b60405180910390a150505062000465565b600033905090565b60008060009054906101000a900473ffffffffffffffffffffffffffffffffffffffff169050816000806101000a81548173ffffffffffffffffffffffffffffffffffffffff021916908373ffffffffffffffffffffffffffffffffffffffff1602179055508173ffffffffffffffffffffffffffffffffffffffff168173ffffffffffffffffffffffffffffffffffffffff167f8be0079c531659141344cd1fd0a4f28419497f9722a3daafe3b4186f6b6457e060405160405180910390a35050565b600081519050620002018162000417565b92915050565b600081519050620002188162000431565b92915050565b6000815190506200022f816200044b565b92915050565b60008060006060848603121562000251576200025062000351565b5b6000620002618682870162000207565b935050602062000274868287016200021e565b92505060406200028786828701620001f0565b9150509250925092565b6000620002a0609883620002da565b9150620002ad8262000356565b60a082019050919050565b60006020820190508181036000830152620002d38162000291565b9050919050565b600082825260208201905092915050565b6000620002f88262000327565b9050919050565b60006200030c82620002eb565b9050919050565b60006200032082620002eb565b9050919050565b600073ffffffffffffffffffffffffffffffffffffffff82169050919050565b6000819050919050565b600080fd5b7f7b22617574686f72223a224f7069756d2e5465616d222c22646573637269707460008201527f696f6e223a224554482f555344204f7261636c65204944222c2261737365742260208201527f3a224554482f555344222c2274797065223a226f6e636861696e222c22736f7560408201527f726365223a22636861696e6c696e6b222c226c6f676963223a226e6f6e65222c60608201527f2270617468223a226c6174657374416e737765722829227d0000000000000000608082015250565b6200042281620002ff565b81146200042e57600080fd5b50565b6200043c8162000313565b81146200044857600080fd5b50565b620004568162000347565b81146200046257600080fd5b50565b6111b180620004756000396000f3fe608060405234801561001057600080fd5b50600436106100a95760003560e01c8063724e78da11610071578063724e78da1461012a578063741bef1a146101465780638da5cb5b146101645780638dffe3f414610182578063de292789146101a0578063f2fde38b146101be576100a9565b80633528f4d7146100ae5780634ef7b428146100cc5780635ffbc77f146100e85780637004128a14610104578063715018a614610120575b600080fd5b6100b66101da565b6040516100c39190610e2c565b60405180910390f35b6100e660048036038101906100e19190610b82565b6101e0565b005b61010260048036038101906100fd9190610b82565b6101fa565b005b61011e60048036038101906101199190610baf565b610280565b005b610128610495565b005b610144600480360381019061013f9190610b55565b61051d565b005b61014e6105dd565b60405161015b9190610d76565b60405180910390f35b61016c610603565b6040516101799190610d32565b60405180910390f35b61018a61062c565b6040516101979190610d91565b60405180910390f35b6101a8610652565b6040516101b59190610e2c565b60405180910390f35b6101d860048036038101906101d39190610afb565b610718565b005b60025481565b60006101ea610652565b90506101f68282610810565b5050565b61020261099c565b73ffffffffffffffffffffffffffffffffffffffff16610220610603565b73ffffffffffffffffffffffffffffffffffffffff1614610276576040517f08c379a000000000000000000000000000000000000000000000000000000000815260040161026d90610dcc565b60405180910390fd5b8060028190555050565b61028861099c565b73ffffffffffffffffffffffffffffffffffffffff166102a6610603565b73ffffffffffffffffffffffffffffffffffffffff16146102fc576040517f08c379a00000000000000000000000000000000000000000000000000000000081526004016102f390610dcc565b60405180910390fd5b600160009054906101000a900473ffffffffffffffffffffffffffffffffffffffff1673ffffffffffffffffffffffffffffffffffffffff1663c8384d2f30846040518363ffffffff1660e01b8152600401610359929190610d4d565b60206040518083038186803b15801561037157600080fd5b505afa158015610385573d6000803e3d6000fd5b505050506040513d601f19601f820116820180604052508101906103a99190610b28565b1580156103c3575042600254836103c09190610e81565b11155b610402576040517f08c379a00000000000000000000000000000000000000000000000000000000081526004016103f990610dec565b60405180910390fd5b600160009054906101000a900473ffffffffffffffffffffffffffffffffffffffff1673ffffffffffffffffffffffffffffffffffffffff16633102e5ab83836040518363ffffffff1660e01b815260040161045f929190610e47565b600060405180830381600087803b15801561047957600080fd5b505af115801561048d573d6000803e3d6000fd5b505050505050565b61049d61099c565b73ffffffffffffffffffffffffffffffffffffffff166104bb610603565b73ffffffffffffffffffffffffffffffffffffffff1614610511576040517f08c379a000000000000000000000000000000000000000000000000000000000815260040161050890610dcc565b60405180910390fd5b61051b60006109a4565b565b61052561099c565b73ffffffffffffffffffffffffffffffffffffffff16610543610603565b73ffffffffffffffffffffffffffffffffffffffff1614610599576040517f08c379a000000000000000000000000000000000000000000000000000000000815260040161059090610dcc565b60405180910390fd5b80600360006101000a81548173ffffffffffffffffffffffffffffffffffffffff021916908373ffffffffffffffffffffffffffffffffffffffff16021790555050565b600360009054906101000a900473ffffffffffffffffffffffffffffffffffffffff1681565b60008060009054906101000a900473ffffffffffffffffffffffffffffffffffffffff16905090565b600160009054906101000a900473ffffffffffffffffffffffffffffffffffffffff1681565b600080600360009054906101000a900473ffffffffffffffffffffffffffffffffffffffff1673ffffffffffffffffffffffffffffffffffffffff1663feaf968c6040518163ffffffff1660e01b815260040160a06040518083038186803b1580156106bd57600080fd5b505afa1580156106d1573d6000803e3d6000fd5b505050506040513d601f19601f820116820180604052508101906106f59190610bef565b50505091505060006402540be4008261070e9190610ed7565b9050809250505090565b61072061099c565b73ffffffffffffffffffffffffffffffffffffffff1661073e610603565b73ffffffffffffffffffffffffffffffffffffffff1614610794576040517f08c379a000000000000000000000000000000000000000000000000000000000815260040161078b90610dcc565b60405180910390fd5b600073ffffffffffffffffffffffffffffffffffffffff168173ffffffffffffffffffffffffffffffffffffffff161415610804576040517f08c379a00000000000000000000000000000000000000000000000000000000081526004016107fb90610dac565b60405180910390fd5b61080d816109a4565b50565b600160009054906101000a900473ffffffffffffffffffffffffffffffffffffffff1673ffffffffffffffffffffffffffffffffffffffff1663c8384d2f30846040518363ffffffff1660e01b815260040161086d929190610d4d565b60206040518083038186803b15801561088557600080fd5b505afa158015610899573d6000803e3d6000fd5b505050506040513d601f19601f820116820180604052508101906108bd9190610b28565b1580156108ca5750428211155b610909576040517f08c379a000000000000000000000000000000000000000000000000000000000815260040161090090610e0c565b60405180910390fd5b600160009054906101000a900473ffffffffffffffffffffffffffffffffffffffff1673ffffffffffffffffffffffffffffffffffffffff16633102e5ab83836040518363ffffffff1660e01b8152600401610966929190610e47565b600060405180830381600087803b15801561098057600080fd5b505af1158015610994573d6000803e3d6000fd5b505050505050565b600033905090565b60008060009054906101000a900473ffffffffffffffffffffffffffffffffffffffff169050816000806101000a81548173ffffffffffffffffffffffffffffffffffffffff021916908373ffffffffffffffffffffffffffffffffffffffff1602179055508173ffffffffffffffffffffffffffffffffffffffff168173ffffffffffffffffffffffffffffffffffffffff167f8be0079c531659141344cd1fd0a4f28419497f9722a3daafe3b4186f6b6457e060405160405180910390a35050565b600081359050610a77816110f1565b92915050565b600081519050610a8c81611108565b92915050565b600081359050610aa18161111f565b92915050565b600081519050610ab681611136565b92915050565b600081359050610acb8161114d565b92915050565b600081519050610ae08161114d565b92915050565b600081519050610af581611164565b92915050565b600060208284031215610b1157610b10611022565b5b6000610b1f84828501610a68565b91505092915050565b600060208284031215610b3e57610b3d611022565b5b6000610b4c84828501610a7d565b91505092915050565b600060208284031215610b6b57610b6a611022565b5b6000610b7984828501610a92565b91505092915050565b600060208284031215610b9857610b97611022565b5b6000610ba684828501610abc565b91505092915050565b60008060408385031215610bc657610bc5611022565b5b6000610bd485828601610abc565b9250506020610be585828601610abc565b9150509250929050565b600080600080600060a08688031215610c0b57610c0a611022565b5b6000610c1988828901610ae6565b9550506020610c2a88828901610aa7565b9450506040610c3b88828901610ad1565b9350506060610c4c88828901610ad1565b9250506080610c5d88828901610ae6565b9150509295509295909350565b610c7381610f31565b82525050565b610c8281610fab565b82525050565b610c9181610fcf565b82525050565b6000610ca4602683610e70565b9150610caf82611027565b604082019050919050565b6000610cc7602083610e70565b9150610cd282611076565b602082019050919050565b6000610cea600283610e70565b9150610cf58261109f565b602082019050919050565b6000610d0d600283610e70565b9150610d18826110c8565b602082019050919050565b610d2c81610f8b565b82525050565b6000602082019050610d476000830184610c6a565b92915050565b6000604082019050610d626000830185610c6a565b610d6f6020830184610d23565b9392505050565b6000602082019050610d8b6000830184610c79565b92915050565b6000602082019050610da66000830184610c88565b92915050565b60006020820190508181036000830152610dc581610c97565b9050919050565b60006020820190508181036000830152610de581610cba565b9050919050565b60006020820190508181036000830152610e0581610cdd565b9050919050565b60006020820190508181036000830152610e2581610d00565b9050919050565b6000602082019050610e416000830184610d23565b92915050565b6000604082019050610e5c6000830185610d23565b610e696020830184610d23565b9392505050565b600082825260208201905092915050565b6000610e8c82610f8b565b9150610e9783610f8b565b9250827fffffffffffffffffffffffffffffffffffffffffffffffffffffffffffffffff03821115610ecc57610ecb610ff3565b5b828201905092915050565b6000610ee282610f8b565b9150610eed83610f8b565b9250817fffffffffffffffffffffffffffffffffffffffffffffffffffffffffffffffff0483118215151615610f2657610f25610ff3565b5b828202905092915050565b6000610f3c82610f6b565b9050919050565b60008115159050919050565b6000610f5a82610f31565b9050919050565b6000819050919050565b600073ffffffffffffffffffffffffffffffffffffffff82169050919050565b6000819050919050565b600069ffffffffffffffffffff82169050919050565b6000610fb682610fbd565b9050919050565b6000610fc882610f6b565b9050919050565b6000610fda82610fe1565b9050919050565b6000610fec82610f6b565b9050919050565b7f4e487b7100000000000000000000000000000000000000000000000000000000600052601160045260246000fd5b600080fd5b7f4f776e61626c653a206e6577206f776e657220697320746865207a65726f206160008201527f6464726573730000000000000000000000000000000000000000000000000000602082015250565b7f4f776e61626c653a2063616c6c6572206973206e6f7420746865206f776e6572600082015250565b7f4f32000000000000000000000000000000000000000000000000000000000000600082015250565b7f4f31000000000000000000000000000000000000000000000000000000000000600082015250565b6110fa81610f31565b811461110557600080fd5b50565b61111181610f43565b811461111c57600080fd5b50565b61112881610f4f565b811461113357600080fd5b50565b61113f81610f61565b811461114a57600080fd5b50565b61115681610f8b565b811461116157600080fd5b50565b61116d81610f95565b811461117857600080fd5b5056fea2646970667358221220b9bc5a62b16e457242fea6a0c96371cb5cbf5594824c47ad9e3acc5321cc388f64736f6c63430008050033",
  "devdoc": {
    "kind": "dev",
    "methods": {
      "owner()": {
        "details": "Returns the address of the current owner."
      },
      "renounceOwnership()": {
        "details": "Leaves the contract without owner. It will not be possible to call `onlyOwner` functions anymore. Can only be called by the current owner. NOTE: Renouncing ownership will leave the contract without an owner, thereby removing any functionality that is only available to the owner."
      },
      "transferOwnership(address)": {
        "details": "Transfers ownership of the contract to a new account (`newOwner`). Can only be called by the current owner."
      }
    },
    "version": 1
  },
  "userdoc": {
    "kind": "user",
    "methods": {
      "_callback(uint256)": {
        "notice": "RESOLVER "
      },
      "emergencyCallback(uint256,uint256)": {
        "notice": "Emergency callback allows to push data manually in case `emergencyPeriod` elapsed and no data were provided"
      },
      "getResult()": {
        "notice": "CHAINLINK "
      },
      "setPriceFeed(address)": {
        "notice": "GOVERNANCE "
      }
    },
    "version": 1
  },
  "storageLayout": {
    "storage": [
      {
        "astId": 53,
        "contract": "contracts/oracles/chainlink/EthUsdChainlinkOracleId.sol:EthUsdChainlinkOracleId",
        "label": "_owner",
        "offset": 0,
        "slot": "0",
        "type": "t_address"
      },
      {
        "astId": 296,
        "contract": "contracts/oracles/chainlink/EthUsdChainlinkOracleId.sol:EthUsdChainlinkOracleId",
        "label": "oracleAggregator",
        "offset": 0,
        "slot": "1",
        "type": "t_contract(IOracleAggregator)1137"
      },
      {
        "astId": 298,
        "contract": "contracts/oracles/chainlink/EthUsdChainlinkOracleId.sol:EthUsdChainlinkOracleId",
        "label": "emergencyPeriod",
        "offset": 0,
        "slot": "2",
        "type": "t_uint256"
      },
      {
        "astId": 184,
        "contract": "contracts/oracles/chainlink/EthUsdChainlinkOracleId.sol:EthUsdChainlinkOracleId",
        "label": "priceFeed",
        "offset": 0,
        "slot": "3",
        "type": "t_contract(AggregatorV3Interface)45"
      }
    ],
    "types": {
      "t_address": {
        "encoding": "inplace",
        "label": "address",
        "numberOfBytes": "20"
      },
      "t_contract(AggregatorV3Interface)45": {
        "encoding": "inplace",
        "label": "contract AggregatorV3Interface",
        "numberOfBytes": "20"
      },
      "t_contract(IOracleAggregator)1137": {
        "encoding": "inplace",
        "label": "contract IOracleAggregator",
        "numberOfBytes": "20"
      },
      "t_uint256": {
        "encoding": "inplace",
        "label": "uint256",
        "numberOfBytes": "32"
      }
    }
  }
}