{
  "address": "0xE3Bd3a8Dd0599e734aAED77Eda6cdCc1c5E7C5DC",
  "abi": [
    {
      "inputs": [
        {
          "internalType": "address",
          "name": "_author",
          "type": "address"
        },
        {
          "internalType": "uint256",
          "name": "_commission",
          "type": "uint256"
        },
        {
          "internalType": "uint256",
          "name": "_collateralization",
          "type": "uint256"
        }
      ],
      "stateMutability": "nonpayable",
      "type": "constructor"
    },
    {
      "anonymous": false,
      "inputs": [
        {
          "indexed": false,
          "internalType": "string",
          "name": "metadata",
          "type": "string"
        }
      ],
      "name": "LogMetadataSet",
      "type": "event"
    },
    {
      "anonymous": false,
      "inputs": [
        {
          "indexed": true,
          "internalType": "address",
          "name": "previousOwner",
          "type": "address"
        },
        {
          "indexed": true,
          "internalType": "address",
          "name": "newOwner",
          "type": "address"
        }
      ],
      "name": "OwnershipTransferred",
      "type": "event"
    },
    {
      "inputs": [],
      "name": "BASE",
      "outputs": [
        {
          "internalType": "uint256",
          "name": "",
          "type": "uint256"
        }
      ],
      "stateMutability": "view",
      "type": "function"
    },
    {
      "inputs": [
        {
          "internalType": "bool",
          "name": "_allow",
          "type": "bool"
        }
      ],
      "name": "allowThirdpartyExecution",
      "outputs": [],
      "stateMutability": "nonpayable",
      "type": "function"
    },
    {
      "inputs": [],
      "name": "collateralization",
      "outputs": [
        {
          "internalType": "uint256",
          "name": "",
          "type": "uint256"
        }
      ],
      "stateMutability": "view",
      "type": "function"
    },
    {
      "inputs": [],
      "name": "getAuthorAddress",
      "outputs": [
        {
          "internalType": "address",
          "name": "",
          "type": "address"
        }
      ],
      "stateMutability": "view",
      "type": "function"
    },
    {
      "inputs": [],
      "name": "getAuthorCommission",
      "outputs": [
        {
          "internalType": "uint256",
          "name": "",
          "type": "uint256"
        }
      ],
      "stateMutability": "view",
      "type": "function"
    },
    {
      "inputs": [
        {
          "components": [
            {
              "internalType": "uint256",
              "name": "margin",
              "type": "uint256"
            },
            {
              "internalType": "uint256",
              "name": "endTime",
              "type": "uint256"
            },
            {
              "internalType": "uint256[]",
              "name": "params",
              "type": "uint256[]"
            },
            {
              "internalType": "address",
              "name": "oracleId",
              "type": "address"
            },
            {
              "internalType": "address",
              "name": "token",
              "type": "address"
            },
            {
              "internalType": "address",
              "name": "syntheticId",
              "type": "address"
            }
          ],
          "internalType": "struct LibDerivative.Derivative",
          "name": "_derivative",
          "type": "tuple"
        },
        {
          "internalType": "uint256",
          "name": "_result",
          "type": "uint256"
        }
      ],
      "name": "getExecutionPayout",
      "outputs": [
        {
          "internalType": "uint256",
          "name": "buyerPayout",
          "type": "uint256"
        },
        {
          "internalType": "uint256",
          "name": "sellerPayout",
          "type": "uint256"
        }
      ],
      "stateMutability": "view",
      "type": "function"
    },
    {
      "inputs": [
        {
          "components": [
            {
              "internalType": "uint256",
              "name": "margin",
              "type": "uint256"
            },
            {
              "internalType": "uint256",
              "name": "endTime",
              "type": "uint256"
            },
            {
              "internalType": "uint256[]",
              "name": "params",
              "type": "uint256[]"
            },
            {
              "internalType": "address",
              "name": "oracleId",
              "type": "address"
            },
            {
              "internalType": "address",
              "name": "token",
              "type": "address"
            },
            {
              "internalType": "address",
              "name": "syntheticId",
              "type": "address"
            }
          ],
          "internalType": "struct LibDerivative.Derivative",
          "name": "_derivative",
          "type": "tuple"
        }
      ],
      "name": "getMargin",
      "outputs": [
        {
          "internalType": "uint256",
          "name": "buyerMargin",
          "type": "uint256"
        },
        {
          "internalType": "uint256",
          "name": "sellerMargin",
          "type": "uint256"
        }
      ],
      "stateMutability": "view",
      "type": "function"
    },
    {
      "inputs": [],
      "name": "getSyntheticIdName",
      "outputs": [
        {
          "internalType": "string",
          "name": "",
          "type": "string"
        }
      ],
      "stateMutability": "pure",
      "type": "function"
    },
    {
      "inputs": [],
      "name": "owner",
      "outputs": [
        {
          "internalType": "address",
          "name": "",
          "type": "address"
        }
      ],
      "stateMutability": "view",
      "type": "function"
    },
    {
      "inputs": [],
      "name": "renounceOwnership",
      "outputs": [],
      "stateMutability": "nonpayable",
      "type": "function"
    },
    {
      "inputs": [
        {
          "internalType": "address",
          "name": "_author",
          "type": "address"
        }
      ],
      "name": "setAuthorAddress",
      "outputs": [],
      "stateMutability": "nonpayable",
      "type": "function"
    },
    {
      "inputs": [
        {
          "internalType": "uint256",
          "name": "_commission",
          "type": "uint256"
        }
      ],
      "name": "setAuthorCommission",
      "outputs": [],
      "stateMutability": "nonpayable",
      "type": "function"
    },
    {
      "inputs": [
        {
          "internalType": "uint256",
          "name": "_collateralization",
          "type": "uint256"
        }
      ],
      "name": "setCollateralization",
      "outputs": [],
      "stateMutability": "nonpayable",
      "type": "function"
    },
    {
      "inputs": [
        {
          "internalType": "address",
          "name": "_derivativeOwner",
          "type": "address"
        }
      ],
      "name": "thirdpartyExecutionAllowed",
      "outputs": [
        {
          "internalType": "bool",
          "name": "",
          "type": "bool"
        }
      ],
      "stateMutability": "view",
      "type": "function"
    },
    {
      "inputs": [
        {
          "internalType": "address",
          "name": "newOwner",
          "type": "address"
        }
      ],
      "name": "transferOwnership",
      "outputs": [],
      "stateMutability": "nonpayable",
      "type": "function"
    },
    {
      "inputs": [
        {
          "components": [
            {
              "internalType": "uint256",
              "name": "margin",
              "type": "uint256"
            },
            {
              "internalType": "uint256",
              "name": "endTime",
              "type": "uint256"
            },
            {
              "internalType": "uint256[]",
              "name": "params",
              "type": "uint256[]"
            },
            {
              "internalType": "address",
              "name": "oracleId",
              "type": "address"
            },
            {
              "internalType": "address",
              "name": "token",
              "type": "address"
            },
            {
              "internalType": "address",
              "name": "syntheticId",
              "type": "address"
            }
          ],
          "internalType": "struct LibDerivative.Derivative",
          "name": "_derivative",
          "type": "tuple"
        }
      ],
      "name": "validateInput",
      "outputs": [
        {
          "internalType": "bool",
          "name": "",
          "type": "bool"
        }
      ],
      "stateMutability": "pure",
      "type": "function"
    }
  ],
  "transactionHash": "0x6d872c87732faba2de4fe40cf19e39fb85a05a395b8d0e5e79880f69dcd06f9a",
  "args": [
    "0x029afFD8Cf192Dae6384BcFEAe6a8D8C6877293F",
    "500",
    "500000000000000000"
  ],
  "numDeployments": 1,
  "solcInputHash": "133223c58f4b6a92faf66767ec332f45",
  "bytecode": "0x60806040523480156200001157600080fd5b506040516200181338038062001813833981810160405281019062000037919062000333565b620000576200004b620000f760201b60201c565b620000ff60201b60201c565b7f0b11cbc9c1f60ccfdad79229add00f3dfa05137343e96ef525274af03c5d19d0604051620000869062000426565b60405180910390a182600260006101000a81548173ffffffffffffffffffffffffffffffffffffffff021916908373ffffffffffffffffffffffffffffffffffffffff1602179055508160038190555080600481905550620000ee83620001c560201b60201c565b50505062000605565b600033905090565b6000600160009054906101000a900473ffffffffffffffffffffffffffffffffffffffff16905081600160006101000a81548173ffffffffffffffffffffffffffffffffffffffff021916908373ffffffffffffffffffffffffffffffffffffffff1602179055508173ffffffffffffffffffffffffffffffffffffffff168173ffffffffffffffffffffffffffffffffffffffff167f8be0079c531659141344cd1fd0a4f28419497f9722a3daafe3b4186f6b6457e060405160405180910390a35050565b620001d5620000f760201b60201c565b73ffffffffffffffffffffffffffffffffffffffff16620001fb620002db60201b60201c565b73ffffffffffffffffffffffffffffffffffffffff161462000254576040517f08c379a00000000000000000000000000000000000000000000000000000000081526004016200024b9062000448565b60405180910390fd5b600073ffffffffffffffffffffffffffffffffffffffff168173ffffffffffffffffffffffffffffffffffffffff161415620002c7576040517f08c379a0000000000000000000000000000000000000000000000000000000008152600401620002be9062000404565b60405180910390fd5b620002d881620000ff60201b60201c565b50565b6000600160009054906101000a900473ffffffffffffffffffffffffffffffffffffffff16905090565b6000815190506200031681620005d1565b92915050565b6000815190506200032d81620005eb565b92915050565b6000806000606084860312156200034f576200034e620004b9565b5b60006200035f8682870162000305565b935050602062000372868287016200031c565b925050604062000385868287016200031c565b9150509250925092565b60006200039e6026836200046a565b9150620003ab82620004be565b604082019050919050565b6000620003c56063836200046a565b9150620003d2826200050d565b608082019050919050565b6000620003ec6020836200046a565b9150620003f982620005a8565b602082019050919050565b600060208201905081810360008301526200041f816200038f565b9050919050565b600060208201905081810360008301526200044181620003b6565b9050919050565b600060208201905081810360008301526200046381620003dd565b9050919050565b600082825260208201905092915050565b600062000488826200048f565b9050919050565b600073ffffffffffffffffffffffffffffffffffffffff82169050919050565b6000819050919050565b600080fd5b7f4f776e61626c653a206e6577206f776e657220697320746865207a65726f206160008201527f6464726573730000000000000000000000000000000000000000000000000000602082015250565b7f7b22617574686f72223a224f7069756d2e5465616d222c2274797065223a226f60008201527f7074696f6e222c2273756274797065223a2263616c6c222c226465736372697060208201527f74696f6e223a224f7074696f6e2043616c6c206c6f67696320636f6e7472616360408201527f74227d0000000000000000000000000000000000000000000000000000000000606082015250565b7f4f776e61626c653a2063616c6c6572206973206e6f7420746865206f776e6572600082015250565b620005dc816200047b565b8114620005e857600080fd5b50565b620005f681620004af565b81146200060257600080fd5b50565b6111fe80620006156000396000f3fe608060405234801561001057600080fd5b50600436106101005760003560e01c8063a4300ee511610097578063dd0060fd11610066578063dd0060fd14610276578063ec342ad0146102a7578063f22430e8146102c5578063f2fde38b146102f557610100565b8063a4300ee514610202578063caca00f414610220578063d099b35f1461023c578063d91d2f601461025857610100565b80633a84543e116100d35780633a84543e1461019e5780633d6490b8146101bc578063715018a6146101da5780638da5cb5b146101e457610100565b80630433fe45146101055780630e49dee8146101365780631bacb5cf146101525780633a6f60a91461016e575b600080fd5b61011f600480360381019061011a9190610b7a565b610311565b60405161012d929190610dee565b60405180910390f35b610150600480360381019061014b9190610b4d565b610377565b005b61016c60048036038101906101679190610c1f565b610384565b005b61018860048036038101906101839190610b7a565b61040a565b6040516101959190610d36565b60405180910390f35b6101a661046b565b6040516101b39190610dd3565b60405180910390f35b6101c4610475565b6040516101d19190610d51565b60405180910390f35b6101e26104b2565b005b6101ec61053a565b6040516101f99190610d1b565b60405180910390f35b61020a610564565b6040516102179190610d1b565b60405180910390f35b61023a60048036038101906102359190610c1f565b61058e565b005b61025660048036038101906102519190610b20565b610614565b005b610260610744565b60405161026d9190610dd3565b60405180910390f35b610290600480360381019061028b9190610bc3565b61074a565b60405161029e929190610dee565b60405180910390f35b6102af610841565b6040516102bc9190610dd3565b60405180910390f35b6102df60048036038101906102da9190610b20565b61084d565b6040516102ec9190610d36565b60405180910390f35b61030f600480360381019061030a9190610b20565b6108a2565b005b60008060008380604001906103269190610e17565b600181811061033857610337611084565b5b905060200201359050809250600084600001359050670de0b6b3a7640000600454826103649190610f1d565b61036e9190610eec565b92505050915091565b610381338261099a565b50565b61038c6109f4565b73ffffffffffffffffffffffffffffffffffffffff166103aa61053a565b73ffffffffffffffffffffffffffffffffffffffff1614610400576040517f08c379a00000000000000000000000000000000000000000000000000000000081526004016103f790610d93565b60405180910390fd5b8060038190555050565b60008082600001351180156104305750600282806040019061042c9190610e17565b9050145b8015610464575060008280604001906104499190610e17565b600081811061045b5761045a611084565b5b90506020020135115b9050919050565b6000600354905090565b60606040518060400160405280600581526020017f4f50542d43000000000000000000000000000000000000000000000000000000815250905090565b6104ba6109f4565b73ffffffffffffffffffffffffffffffffffffffff166104d861053a565b73ffffffffffffffffffffffffffffffffffffffff161461052e576040517f08c379a000000000000000000000000000000000000000000000000000000000815260040161052590610d93565b60405180910390fd5b61053860006109fc565b565b6000600160009054906101000a900473ffffffffffffffffffffffffffffffffffffffff16905090565b6000600260009054906101000a900473ffffffffffffffffffffffffffffffffffffffff16905090565b6105966109f4565b73ffffffffffffffffffffffffffffffffffffffff166105b461053a565b73ffffffffffffffffffffffffffffffffffffffff161461060a576040517f08c379a000000000000000000000000000000000000000000000000000000000815260040161060190610d93565b60405180910390fd5b8060048190555050565b61061c6109f4565b73ffffffffffffffffffffffffffffffffffffffff1661063a61053a565b73ffffffffffffffffffffffffffffffffffffffff1614610690576040517f08c379a000000000000000000000000000000000000000000000000000000000815260040161068790610d93565b60405180910390fd5b600073ffffffffffffffffffffffffffffffffffffffff168173ffffffffffffffffffffffffffffffffffffffff161415610700576040517f08c379a00000000000000000000000000000000000000000000000000000000081526004016106f790610db3565b60405180910390fd5b80600260006101000a81548173ffffffffffffffffffffffffffffffffffffffff021916908373ffffffffffffffffffffffffffffffffffffffff16021790555050565b60045481565b600080600084806040019061075f9190610e17565b600081811061077157610770611084565b5b905060200201359050600085806040019061078c9190610e17565b600181811061079e5761079d611084565b5b9050602002013590506000866000013590506000670de0b6b3a7640000600454836107c99190610f1d565b6107d39190610eec565b905083871115610820578684886107ea9190610f77565b836107f59190610f1d565b6107ff9190610eec565b95508086111561080d578095505b85816108199190610f77565b9450610828565b600095508094505b82856108349190610e96565b9450505050509250929050565b670de0b6b3a764000081565b60008060008373ffffffffffffffffffffffffffffffffffffffff1673ffffffffffffffffffffffffffffffffffffffff16815260200190815260200160002060009054906101000a900460ff169050919050565b6108aa6109f4565b73ffffffffffffffffffffffffffffffffffffffff166108c861053a565b73ffffffffffffffffffffffffffffffffffffffff161461091e576040517f08c379a000000000000000000000000000000000000000000000000000000000815260040161091590610d93565b60405180910390fd5b600073ffffffffffffffffffffffffffffffffffffffff168173ffffffffffffffffffffffffffffffffffffffff16141561098e576040517f08c379a000000000000000000000000000000000000000000000000000000000815260040161098590610d73565b60405180910390fd5b610997816109fc565b50565b806000808473ffffffffffffffffffffffffffffffffffffffff1673ffffffffffffffffffffffffffffffffffffffff16815260200190815260200160002060006101000a81548160ff0219169083151502179055505050565b600033905090565b6000600160009054906101000a900473ffffffffffffffffffffffffffffffffffffffff16905081600160006101000a81548173ffffffffffffffffffffffffffffffffffffffff021916908373ffffffffffffffffffffffffffffffffffffffff1602179055508173ffffffffffffffffffffffffffffffffffffffff168173ffffffffffffffffffffffffffffffffffffffff167f8be0079c531659141344cd1fd0a4f28419497f9722a3daafe3b4186f6b6457e060405160405180910390a35050565b600081359050610ad181611183565b92915050565b600081359050610ae68161119a565b92915050565b600060c08284031215610b0257610b016110b8565b5b81905092915050565b600081359050610b1a816111b1565b92915050565b600060208284031215610b3657610b356110cc565b5b6000610b4484828501610ac2565b91505092915050565b600060208284031215610b6357610b626110cc565b5b6000610b7184828501610ad7565b91505092915050565b600060208284031215610b9057610b8f6110cc565b5b600082013567ffffffffffffffff811115610bae57610bad6110c7565b5b610bba84828501610aec565b91505092915050565b60008060408385031215610bda57610bd96110cc565b5b600083013567ffffffffffffffff811115610bf857610bf76110c7565b5b610c0485828601610aec565b9250506020610c1585828601610b0b565b9150509250929050565b600060208284031215610c3557610c346110cc565b5b6000610c4384828501610b0b565b91505092915050565b610c5581610fab565b82525050565b610c6481610fbd565b82525050565b6000610c7582610e7a565b610c7f8185610e85565b9350610c8f818560208601610ff3565b610c98816110d1565b840191505092915050565b6000610cb0602683610e85565b9150610cbb826110e2565b604082019050919050565b6000610cd3602083610e85565b9150610cde82611131565b602082019050919050565b6000610cf6600283610e85565b9150610d018261115a565b602082019050919050565b610d1581610fe9565b82525050565b6000602082019050610d306000830184610c4c565b92915050565b6000602082019050610d4b6000830184610c5b565b92915050565b60006020820190508181036000830152610d6b8184610c6a565b905092915050565b60006020820190508181036000830152610d8c81610ca3565b9050919050565b60006020820190508181036000830152610dac81610cc6565b9050919050565b60006020820190508181036000830152610dcc81610ce9565b9050919050565b6000602082019050610de86000830184610d0c565b92915050565b6000604082019050610e036000830185610d0c565b610e106020830184610d0c565b9392505050565b60008083356001602003843603038112610e3457610e336110bd565b5b80840192508235915067ffffffffffffffff821115610e5657610e556110b3565b5b602083019250602082023603831315610e7257610e716110c2565b5b509250929050565b600081519050919050565b600082825260208201905092915050565b6000610ea182610fe9565b9150610eac83610fe9565b9250827fffffffffffffffffffffffffffffffffffffffffffffffffffffffffffffffff03821115610ee157610ee0611026565b5b828201905092915050565b6000610ef782610fe9565b9150610f0283610fe9565b925082610f1257610f11611055565b5b828204905092915050565b6000610f2882610fe9565b9150610f3383610fe9565b9250817fffffffffffffffffffffffffffffffffffffffffffffffffffffffffffffffff0483118215151615610f6c57610f6b611026565b5b828202905092915050565b6000610f8282610fe9565b9150610f8d83610fe9565b925082821015610fa057610f9f611026565b5b828203905092915050565b6000610fb682610fc9565b9050919050565b60008115159050919050565b600073ffffffffffffffffffffffffffffffffffffffff82169050919050565b6000819050919050565b60005b83811015611011578082015181840152602081019050610ff6565b83811115611020576000848401525b50505050565b7f4e487b7100000000000000000000000000000000000000000000000000000000600052601160045260246000fd5b7f4e487b7100000000000000000000000000000000000000000000000000000000600052601260045260246000fd5b7f4e487b7100000000000000000000000000000000000000000000000000000000600052603260045260246000fd5b600080fd5b600080fd5b600080fd5b600080fd5b600080fd5b600080fd5b6000601f19601f8301169050919050565b7f4f776e61626c653a206e6577206f776e657220697320746865207a65726f206160008201527f6464726573730000000000000000000000000000000000000000000000000000602082015250565b7f4f776e61626c653a2063616c6c6572206973206e6f7420746865206f776e6572600082015250565b7f5331000000000000000000000000000000000000000000000000000000000000600082015250565b61118c81610fab565b811461119757600080fd5b50565b6111a381610fbd565b81146111ae57600080fd5b50565b6111ba81610fe9565b81146111c557600080fd5b5056fea2646970667358221220fc21e86a78828cbb9a259cecd057991b99badedf7c6785573108a060ea4ff85864736f6c63430008050033",
  "devdoc": {
    "kind": "dev",
    "methods": {
      "allowThirdpartyExecution(bool)": {
        "params": {
          "_allow": "bool Flag for execution allowance"
        }
      },
      "getAuthorAddress()": {
        "returns": {
          "_0": "address syntheticId author address"
        }
      },
      "getAuthorCommission()": {
        "returns": {
          "_0": "uint256 syntheticId author commission"
        }
      },
      "getExecutionPayout((uint256,uint256,uint256[],address,address,address),uint256)": {
        "params": {
          "_derivative": "Derivative Instance of derivative",
          "_result": "uint256 Data retrieved from oracleId on the maturity"
        },
        "returns": {
          "buyerPayout": "uint256 Payout in ratio for buyer (LONG position holder)",
          "sellerPayout": "uint256 Payout in ratio for seller (SHORT position holder)"
        }
      },
      "getMargin((uint256,uint256,uint256[],address,address,address))": {
        "params": {
          "_derivative": "Derivative Instance of derivative"
        },
        "returns": {
          "buyerMargin": "uint256 Margin needed from buyer (LONG position)",
          "sellerMargin": "uint256 Margin needed from seller (SHORT position)"
        }
      },
      "getSyntheticIdName()": {
        "returns": {
          "_0": "Returns the custom name of a derivative ticker which will be used as part of the name of its positions"
        }
      },
      "owner()": {
        "details": "Returns the address of the current owner."
      },
      "renounceOwnership()": {
        "details": "Leaves the contract without owner. It will not be possible to call `onlyOwner` functions anymore. Can only be called by the current owner. NOTE: Renouncing ownership will leave the contract without an owner, thereby removing any functionality that is only available to the owner."
      },
      "transferOwnership(address)": {
        "details": "Transfers ownership of the contract to a new account (`newOwner`). Can only be called by the current owner."
      },
      "validateInput((uint256,uint256,uint256[],address,address,address))": {
        "params": {
          "_derivative": "Derivative Instance of derivative to validate"
        },
        "returns": {
          "_0": "Returns boolean whether ticker is valid"
        }
      }
    },
    "version": 1
  },
  "userdoc": {
    "kind": "user",
    "methods": {
      "allowThirdpartyExecution(bool)": {
        "notice": "Sets whether thirds parties are allowed or not to execute derivative's on msg.sender's behalf"
      },
      "getAuthorAddress()": {
        "notice": "Getter for syntheticId author address"
      },
      "getAuthorCommission()": {
        "notice": "Getter for syntheticId author commission"
      },
      "getExecutionPayout((uint256,uint256,uint256[],address,address,address),uint256)": {
        "notice": "Calculates payout for derivative execution"
      },
      "getMargin((uint256,uint256,uint256[],address,address,address))": {
        "notice": "Calculates margin required for derivative creation"
      },
      "setAuthorAddress(address)": {
        "notice": "GOVERNANCE "
      },
      "thirdpartyExecutionAllowed(address)": {
        "notice": "THIRDPARTY EXECUTION "
      },
      "validateInput((uint256,uint256,uint256[],address,address,address))": {
        "notice": "Validates ticker"
      }
    },
    "notice": "Error codes: - S1 = CAN_NOT_BE_ZERO_ADDRESS",
    "version": 1
  },
  "storageLayout": {
    "storage": [
      {
        "astId": 1020,
        "contract": "contracts/synthetics/options/OptionCallSyntheticId.sol:OptionCallSyntheticId",
        "label": "isThirdPartyExecutionAllowed",
        "offset": 0,
        "slot": "0",
        "type": "t_mapping(t_address,t_bool)"
      },
      {
        "astId": 53,
        "contract": "contracts/synthetics/options/OptionCallSyntheticId.sol:OptionCallSyntheticId",
        "label": "_owner",
        "offset": 0,
        "slot": "1",
        "type": "t_address"
      },
      {
        "astId": 414,
        "contract": "contracts/synthetics/options/OptionCallSyntheticId.sol:OptionCallSyntheticId",
        "label": "author",
        "offset": 0,
        "slot": "2",
        "type": "t_address"
      },
      {
        "astId": 416,
        "contract": "contracts/synthetics/options/OptionCallSyntheticId.sol:OptionCallSyntheticId",
        "label": "commission",
        "offset": 0,
        "slot": "3",
        "type": "t_uint256"
      },
      {
        "astId": 418,
        "contract": "contracts/synthetics/options/OptionCallSyntheticId.sol:OptionCallSyntheticId",
        "label": "collateralization",
        "offset": 0,
        "slot": "4",
        "type": "t_uint256"
      }
    ],
    "types": {
      "t_address": {
        "encoding": "inplace",
        "label": "address",
        "numberOfBytes": "20"
      },
      "t_bool": {
        "encoding": "inplace",
        "label": "bool",
        "numberOfBytes": "1"
      },
      "t_mapping(t_address,t_bool)": {
        "encoding": "mapping",
        "key": "t_address",
        "label": "mapping(address => bool)",
        "numberOfBytes": "32",
        "value": "t_bool"
      },
      "t_uint256": {
        "encoding": "inplace",
        "label": "uint256",
        "numberOfBytes": "32"
      }
    }
  }
}